:020000040000FA
:100000009FEF14F0C96E1200A4EF0DF08AEC14F00B
:1000100095EC15F0FDD71200EAEF0FF0D9CFE5FF10
:10002000E1CFD9FF00C0E5FF01C0E5FF02C0E5FF59
:1000300003C0E5FF04C0E5FF05C0E5FF06C0E5FF1E
:1000400007C0E5FF08C0E5FF09C0E5FF0AC0E5FFFE
:100050000BC0E5FF0CC0E5FF0DC0E5FF0EC0E5FFDE
:100060000FC0E5FF10C0E5FF11C0E5FF12C0E5FFBE
:1000700013C0E5FF14C0E5FF15C0E5FF16C0E5FF9E
:1000800017C0E5FF18C0E5FF19C0E5FF1AC0E5FF7E
:100090001BC0E5FF1CC0E5FF1DC0E5FF1EC0E5FF5E
:1000A000020EDBCF00F0030EDBCF01F0040EDBCF3E
:1000B00002F0050EDBCF03F0060EDBCF04F0070ED7
:1000C000DBCF05F0080EDBCF06F0090EDBCF07F023
:1000D0000A0EDBCF08F0096A0A6A02C00DF00D5063
:1000E000800A0DE102500401606F01505F6F005003
:1000F0005E6F040E016E5E0E006E800E026E03C017
:10010000E9FF04C0F3FF0550E9EC14F00B6E0B504F
:10011000D8B4C4EF03F00B50250A02E0ABEF03F0B4
:100120000C6A0D6A0E6A0F6A106A0A0E116E126A64
:10013000136A146A200E156E1668176A2B0E186E55
:10014000032A02E3044A052A03C0E9FF04C0F3FFBF
:100150000550E9EC14F0196E250A13E11950E56E0B
:100160000250E56E0150E56E0050E56E29EC0AF094
:10017000040EE126094A0A2A032A02E3044A052A50
:10018000BED71950300A06E1300E156E032A02E37D
:10019000044A052A03C0E9FF04C0F3FF0550E9EC57
:1001A00014F02D0A06E1010E146E032A02E3044A3C
:1001B000052A03C0E9FF04C0F3FF0550E9EC14F081
:1001C000200A08E1010E176E200E186E032A02E3C2
:1001D000044A052A03C0E9FF04C0F3FF0550E9EC17
:1001E00014F02B0A06E1010E176E032A02E3044AFB
:1001F000052A03C0E9FF04C0F3FF0550E9EC14F041
:10020000196E310E195C2BE33A0E195C28E203C01B
:1002100019F004C01AF005C01BF019C0E9FF1AC09C
:10022000F3FF1B50E9EC14F01C6E300E1C5C11E364
:100230003A0E1C5C0EE213500A0DF3CF1DF01C5059
:100240001D26D00E1D24136E192A02E31A4A1B2AFA
:10025000E4D719C003F01AC004F01BC005F003C0B6
:10026000E9FF04C0F3FF0550E9EC14F02E0A2DE17C
:10027000032A02E3044A052A166A03C019F004C0DF
:100280001AF005C01BF019C0E9FF1AC0F3FF1B509C
:10029000E9EC14F01C6E300E1C5C11E33A0E1C5C91
:1002A0000EE216500A0DF3CF1DF01C501D26D00E85
:1002B0001D24166E192A02E31A4A1B2AE4D719C014
:1002C00003F01AC004F01BC005F003C0E9FF04C02E
:1002D000F3FF0550E9EC14F0196E6C0A07E1010E0A
:1002E0000C6E032A02E3044A052A09D01950680A51
:1002F00006E1010E0E6E032A02E3044A052A03C03A
:10030000E9FF04C0F3FF0550E9EC14F0750A06E1BB
:10031000010E106E032A02E3044A052A03C0E9FF16
:1003200004C0F3FF0550E9EC14F0196E730A05E1FF
:10033000010E0D6E200E156E3FD01950780A03E1A4
:10034000100E116E39D01950580A05E1100E116EB9
:10035000010E126E31D01950630A02E1116A2CD0DD
:1003600019506F0A03E1080E116E26D01950660A63
:1003700003E1010E0F6E20D01950640A1DE01950E0
:10038000690A1AE0105005E0FF0E03260422052238
:1003900013D01950E56E0250E56E0150E56E005025
:1003A000E56E29EC0AF0040EE126094A0A2A032A1E
:1003B00002E3044A052AA3D60D5021E00650030F9C
:1003C0000D6E000E0720196E000E08201A6E0DC06B
:1003D00006F019C007F01AC008F0FD0E0D26FF0E3A
:1003E00019221A220DC0E9FF19C0F3FF1A509FEC21
:1003F00013F00D6EF3CF19F0F4CF1AF0FDD00F50BB
:100400000DE0000E1A6E080E196E100E0D6E040E21
:100410000626000E072208221668EED016680C5039
:1004200023E00650040F0C6E000E07200F6E000E26
:1004300008201B6E0CC006F00FC007F01BC008F0B0
:10044000FC0E0C26FF0E0F221B220CC0E9FF0FC072
:10045000F3FF1B5025EC13F00C6EF3CF0FF0F4CF2D
:100460001BF0E9CF1CF067D00E502FE00650020FB2
:100470000E6E000E07201D6E000E08201E6E0EC0B0
:1004800006F01DC007F01EC008F0FE0E0E26FF0E7F
:100490001D221E220EC0E9FF1DC0F3FF1E505EECA0
:1004A00014F00E6E0EC00CF00F6A1B6A1C6A11501D
:1004B0000A0A03E11050D8B43ED00C500E6E0EC0A4
:1004C0000CF00F6A1B6A1C6A36D00650020F0E6EC3
:1004D000000E07201D6E000E08201E6E0EC006F0D6
:1004E0001DC007F01EC008F0FE0E0E26FF0E1D22D6
:1004F0001E220EC0E9FF1DC0F3FF1E505EEC14F07B
:100500000E6EF3CF1DF00EC00CF01DC00FF0E86AA8
:100510001DBEFF0E1B6E1C6E11500A0A02E1105028
:100520000AE00C500E6E0F501D6E0EC00CF01DC078
:100530000FF01B6A1C6A0F0E196E240E0D6E800ED2
:100540001A6E1150D8B440D0105013E01150E56E1F
:100550000F0EE56E240EE56E1C50E56E1B50E56E29
:100560000F50E56E0C50E56E2FEC05F0070EE126FE
:1005700012D01150E56E0F0EE56E240EE56E1C5084
:10058000E56E1B50E56E0F50E56E0C50E56E41ECCC
:100590000DF0070EE12617502FE00DC0E9FF19C03E
:1005A000F3FF1A50E9EC14F02D0A26E0FF0E0D2699
:1005B00019221A2218C0E5FF0DC0E9FF19C0F3FF88
:1005C0001A5064EC15F018D00CC0E5FF0DC0E9FF1F
:1005D00019C0F3FF1A5064EC15F00D50010F0C6EAA
:1005E000000E19200E6E000E1A20E56A0CC0E9FFFD
:1005F0000EC0F3FF64EC15F00DC00CF019C00EF046
:100600001AC00FF013C010F0105010E00CC0E9FF3A
:100610000EC0F3FF0F50E9EC14F0176E175006E010
:100620000C2A02E30E4A0F2A1006EED710C013F070
:1006300014501EE109C00CF00AC00EF010C00FF0FB
:100640000F5010E01550E56E0250E56E0150E56E5A
:100650000050E56E29EC0AF0040EE1260C4A0E2A41
:100660000F06EED70CC009F00EC00AF00FC013F051
:1006700016C00CF00DC00DF019C00EF01AC00FF02E
:1006800009C010F00AC015F00DC0E9FF0EC0F3FF5D
:100690000F50E9EC14F0166E1650D8B43ED00CC0D2
:1006A00016F0176A161E171E1650171005E00CC01C
:1006B00016F00C06165031E00DC0E9FF0EC0F3FF36
:1006C0000F50E9EC14F0116E125010E01150E56E6D
:1006D0001BEC14F0166EE652165004E0DF0E1114F7
:1006E000166E02D011C016F016C011F01150E56E52
:1006F0000250E56E0150E56E0050E56E29EC0AF0FF
:10070000040EE1260D2A02E30E4A0F2A104A152A8A
:100710001350D8B4B9D71306B7D710C009F015C015
:100720000AF014502BE010C00CF015C00DF013C0EF
:100730000EF00E501FE0200EE56E0250E56E0150E7
:10074000E56E0050E56E29EC0AF0040EE1260C4A35
:100750000D2A0E06EED70B50E56E0250E56E0150E5
:10076000E56E0050E56E29EC0AF0040EE126094A18
:100770000A2A04D00CC009F00DC00AF0032A02E3D3
:10078000044A052A7FEF00F00AC0F3FF0950E4CFC6
:100790001EF0E4CF1DF0E4CF1CF0E4CF1BF0E4CF5B
:1007A0001AF0E4CF19F0E4CF18F0E4CF17F0E4CF5B
:1007B00016F0E4CF15F0E4CF14F0E4CF13F0E4CF5B
:1007C00012F0E4CF11F0E4CF10F0E4CF0FF0E4CF5B
:1007D0000EF0E4CF0DF0E4CF0CF0E4CF0BF0E4CF5B
:1007E0000AF0E4CF09F0E4CF08F0E4CF07F0E4CF5B
:1007F00006F0E4CF05F0E4CF04F0E4CF03F0E4CF5B
:1008000002F0E4CF01F0E4CF00F0E4CFD9FF120012
:100810003C4E4F20464C4F41543E000000C0E5FF87
:1008200001C0E5FF02C0E5FF03C0E5FF040156512A
:10083000D8B40CD19DA81DD09EA81BD004016A512C
:100840000401671905E117EC15F00401676BFED090
:10085000000E04016A25006E016A040E012200C028
:10086000E9FF01C0EAFFEFCF63F46A2B63C4ADFF79
:10087000EDD09DAAEBD09EAAE9D0ABA205D0040191
:10088000688117EC15F0E2D0ABA405D004016883B1
:1008900017EC15F0DBD0ABA048D0AECF63F457C453
:1008A00000F0016A008E63C402F0036A025000186F
:1008B00003E10350011801E004D004016889AB96FC
:1008C000C5D00401635104E063510401571929E1C3
:1008D00004016899AB960401635103E00401689731
:1008E00002D00401688763C46CF465C46DF404012C
:1008F0006551006E000404016E6F600E04016D25E9
:10090000006E016A000E012200C0E9FF01C0EAFF8B
:1009100063C4EFFF6D2B6D51800A02E104016D6B22
:1009200095D004016899AB8691D0AECF63F40401F1
:1009300068A921D057C400F0016A008E63C402F098
:10094000036A0250001803E10350011801E011D0BE
:100950009D9AAB9894900401675104E1AD6A17EC3D
:1009600015F007D000C4ADFF010E04016A6F9D8829
:100970006DD0AB866BD00401635104016C27040178
:100980006D5104016E191BE104016C510CE16DC441
:1009900065F4040168B712D09D9AAB989490AD6A43
:1009A00017EC15F00BD00401688568B707D09D9A45
:1009B000AB989490010EAD6E17EC15F047D0040182
:1009C0006D510401661908E10401665104016519BD
:1009D00003E017EC15F03AD065C400F0016A004A54
:1009E000012AE56A800EE56E0150E56E0050E56E65
:1009F00038EC0BF0006E040EE12600500401646F29
:100A000004016D190FE163C400F01F0E001404010E
:100A10006E6F006E020E00246E6F040165510401BA
:100A20006E276E9F6DC400F004016D2B016A600E8D
:100A30000026000E012200C0E9FF01C0EAFF63C4E6
:100A4000EFFF6D51800A02E104016D6BE4CF03F00A
:100A5000E4CF02F0E4CF01F0E4CF00F01200D9CFF0
:100A6000E5FFE1CFD9FF00C0E5FF01C0E5FF02C00F
:100A7000E5FF03C0E5FF04C0E5FF05C0E5FF06C0D4
:100A8000E5FF07C0E5FF08C0E5FF09C0E5FF0AC0B4
:100A9000E5FF0BC0E5FF0CC0E5FF0DC0E5FF0EC094
:100AA000E5FF0FC0E5FF020EDBCF00F0030EDBCF4A
:100AB00001F0040EDBCF02F0050EDBCF03F0060ED3
:100AC000DBCF04F0070EDBCF05F0080EDBCF06F01E
:100AD000200E076E086A06C009F00A6A0B6A0C6AE3
:100AE000E56AE56AE56A0950E56E0350E56E025075
:100AF000E56E0150E56E0050E56EB8EC06F00D6E47
:100B0000080EE126300E0D263A0E0D5C05E30D5061
:100B10000E6E270E0E240D6EFF0E07260822E00E25
:100B200007240E6E000E08200F6E0EC0E9FF0FC0E6
:100B3000EAFF0DC0EFFF0C50E56E0B50E56E0A505A
:100B4000E56E0950E56E0350E56E0250E56E01500A
:100B5000E56E0050E56E7FEC08F0006EF3CF01F01B
:100B6000F4CF02F0E9CF03F0080EE12600500110A7
:100B700002100310D8A4AFD707C000F008C001F0DE
:100B800004C002F005C003F000C004F001C005F08D
:100B9000004A012AE00E0426000E052204C0E9FFE7
:100BA00005C0EAFFEFCF04F002C0E9FF03C0EAFF8F
:100BB00004C0EFFF024A032A000E015C02E1200E8E
:100BC000005CE2E302C0E9FF03C0EAFF000EEF6A47
:100BD000E4CF0FF0E4CF0EF0E4CF0DF0E4CF0CF053
:100BE000E4CF0BF0E4CF0AF0E4CF09F0E4CF08F053
:100BF000E4CF07F0E4CF06F0E4CF05F0E4CF04F053
:100C0000E4CF03F0E4CF02F0E4CF01F0E4CF00F052
:100C1000E4CFD9FF120000C0E5FF01C0E5FF02C02C
:100C2000E5FF03C0E5FF60EC12F0006EF3CF01F0CA
:100C3000F4CF02F0E9CF03F004018E51005E8F5132
:100C4000015A9051025A9151035A039E3F0E035C80
:100C500008E1FF0E025C05E1FF0E015C02E1FF0E00
:100C6000005C16E2B7EC15F060EC12F0F3CF01F087
:100C7000F4CF02F0E9CF03F0500F04018E6F460E5F
:100C800001208F6F000E0220906F000E0320916FE5
:100C9000080E0401595DD8B062D00F014EB15FD08B
:100CA00004015951020DF450016EF3CF00F0230EF0
:100CB0000026040E012200C0E9FF01C0EAFFEECFCA
:100CC00002F0EFCF03F00250031002E1592B47D09E
:100CD00004015951030DF450036EF3CF02F0390EA5
:100CE0000226040E032202C0E9FF03C0EAFFEECF92
:100CF00030FFEECF31FFEFCF32FF810E5925026E6C
:100D0000036A040E032202C0E9FF03C0EAFFEFCF2B
:100D100072F400C0E9FF01C0EAFFEECF00F0EFCFB0
:100D200001F0001E011E01500F01506F00500F0115
:100D30004F6F7E9204C0E5FFF2CF04F0F29E0F01E8
:100D40003051E96E3151EA6E04017251EF120F0118
:100D50004E8104BEF28EE4CF04F00401592BE4CF9F
:100D600003F0E4CF02F0E4CF01F0E4CF00F0120092
:100D7000D9CFE5FFE1CFD9FF00C0E5FF01C0E5FF16
:100D800002C0E5FF03C0E5FF04C0E5FF05C0E5FFC5
:100D900006C0E5FF07C0E5FF08C0E5FF09C0E5FFA5
:100DA0000AC0E5FF020EDBCF00F0030EDBCF01F03F
:100DB000040EDBCF02F0050EDBCF03F0060EDBCF17
:100DC00004F0070EDBCF05F0080EDBCF06F0090EAE
:100DD000DBCF07F0086A045005100610071005E184
:100DE000E968F468F368E86847D0096A0750800B3F
:100DF000E8440A6E0A501BE1045004260536063604
:100E000007360750035C08E10650025C05E1055017
:100E1000015C02E10450005C06E2D8900732063221
:100E20000532043204D0092A09C008F0DFD7075080
:100E3000035C08E10650025C05E10550015C02E13B
:100E40000450005C08E30450005E0550015A06504F
:100E5000025A0750035AD89007320632053204323C
:100E600008C009F008060950E2E103C0E9FF02C02A
:100E7000F4FF01C0F3FF0050E4CF0AF0E4CF09F023
:100E8000E4CF08F0E4CF07F0E4CF06F0E4CF05F0BC
:100E9000E4CF04F0E4CF03F0E4CF02F0E4CF01F0BC
:100EA000E4CF00F0E4CFD9FF120000C0E5FF01C09D
:100EB000E5FF02C0E5FF03C0E5FF04C0E5FF040154
:100EC00066510401651901E167D066C400F0005065
:100ED000016E0128006E009E600E0024016E026A01
:100EE000000E022201C0E9FF02C0EAFFEFCF70F45A
:100EF0001F0E0401701766C46FF4705104016F2750
:100F00006F51016E020E01246F6F6F9F8AEC12F019
:100F1000016E015003E1016A012A01D0016A8AECE5
:100F200012F00401706F70C402F0800E021670C4DB
:100F300003F01F0E031603C004F003C070F4045046
:100F400003E165C466F43BD001501EE0025022E08C
:100F50008AEC12F0006E04017051016E0104706F92
:100F60000050420A17E000504E0A03E1A8EC0FF0CF
:100F700011D00050460A03E159EC15F00BD0005097
:100F8000490A08E1FF0006D066C471F40250D8B4E3
:100F900080EC15F06FC466F4040153510401541938
:100FA00006E00401675103E1EAEC07F008D094B0D1
:100FB00006D00401675103E1ACB217EC15F0E4CFA1
:100FC00004F0E4CF03F0E4CF02F0E4CF01F0E4CF8B
:100FD00000F0120000C0E5FF01C0E5FF02C0E5FF20
:100FE00003C0E5FF04C0E5FFACA27ED045EC13F0E2
:100FF000006E005005E10401546B0401536B74D082
:1010000054C401F00050012645EC13F0026E00506C
:10101000036E0304006E0250230A1FE1010E005C00
:10102000D8A060D045EC13F0026E690A03E12FEC02
:1010300012F058D00250720A03E117EC15F052D0AA
:101040000250730A01E04ED09480AB869D8A9D9831
:10105000AE50AE50AB98AB8845D00250430A05E085
:101060000250420A01E03ED006D000C003F0046AFC
:10107000038E0350006E00C069F400500401006F3D
:10108000010E04016A6F04015451011814E045EC8B
:1010900013F0026E04016927000E04016A25006E38
:1010A000036A040E032200C0E9FF03C0EAFF02C086
:1010B000EFFF6A2BE8D7000E04016A25006E026A72
:1010C000040E02220401691D036E032A00C0E9FF19
:1010D00002C0EAFF03C0EFFF04016A2B6AC467F491
:1010E0000401616B01C054F4E4CF04F0E4CF03F0D9
:1010F000E4CF02F0E4CF01F0E4CF00F01200D9CF4A
:10110000E5FFE1CFD9FF00C0E5FF01C0E5FF02C068
:10111000E5FF03C0E5FF04C0E5FF05C0E5FF06C02D
:10112000E5FF07C0E5FF08C0E5FF09C0E5FF0AC00D
:10113000E5FF0BC0E5FF0CC0E5FF0DC0E5FF020EAB
:10114000DBCF00F0030EDBCF01F0040EDBCF02F0AB
:10115000050EDBCF03F0060EDBCF04F0070EDBCF6E
:1011600005F0080EDBCF06F0090EDBCF07F0086AAA
:10117000096A0A6A0B6A200E0C6E0350800BE84461
:101180000D6E005000260136023603360850082640
:1011900009360A360B360D50D8A4088007500B5C70
:1011A00008E106500A5C05E10550095C02E10450C3
:1011B000085C09E30450085E0550095A06500A5AB3
:1011C00007500B5A00800C040D6E0DC00CF00D5032
:1011D000D4E103C0E9FF02C0F4FF01C0F3FF0050F7
:1011E000E4CF0DF0E4CF0CF0E4CF0BF0E4CF0AF045
:1011F000E4CF09F0E4CF08F0E4CF07F0E4CF06F045
:10120000E4CF05F0E4CF04F0E4CF03F0E4CF02F044
:10121000E4CF01F0E4CF00F0E4CFD9FF120000C02A
:10122000E5FF01C0E5FF03C0E5FF04C0E5FF05C021
:10123000E5FF06C0E5FF07C0E5FF08C0E5FF09C000
:10124000E5FF0AC0E5FF0BC0E5FF36CF00F037CF62
:1012500001F00F01363F01D0372B0050E56E09EC4D
:1012600015F0E652076E046A056A066A36CF00F08A
:1012700037CF01F00F01363F01D0372B0050E56E1C
:1012800009EC15F0E6520B6A0A6E086A085004125F
:1012900005120A5006120B50071236CF00F037CF56
:1012A00001F00F01363F01D0372B0050E56E09ECFD
:1012B00015F0E652036E006A03C001F0E86A03BE4F
:1012C000FF0E086E096E00500412015005120850FE
:1012D00006120950071236CF00F037CF01F00F0188
:1012E000363F01D0372B0050E56E09EC15F0E65281
:1012F000016A0412015005120612071207C0E9FF25
:1013000006C0F4FF05C0F3FF0450E4CF0BF0E4CFB8
:101310000AF0E4CF09F0E4CF08F0E4CF07F0E4CF1F
:1013200006F0E4CF05F0E4CF04F0E4CF03F0E4CF1F
:1013300001F0E4CF00F01200D9CFE5FFE1CFD9FFF3
:1013400000C0E5FF01C0E5FF02C0E5FF03C0E5FF07
:1013500004C0E5FF05C0E5FF06C0E5FF07C0E5FFE7
:10136000020EDBCF00F0030EDBCF01F0040EDBCF6B
:1013700002F0050EDBCF03F003C004F0056A035052
:10138000D8B454D000C0E9FF01C0F3FF0250E9EC2B
:1013900014F0066E430A08E1010E056E03C006F064
:1013A000076A068E0650036E0406002A02E3014A0D
:1013B000022A9D9AAB9894909D989EA8FED7AC80E7
:1013C000AD6A00009EA8FED7AC9003C0ADFF000040
:1013D0009EA8FED7055004E0420EAD6E032604D051
:1013E000620EAD6E620E0326045015E000009EA84A
:1013F000FED700C0E9FF01C0F3FF0250E9EC14F092
:10140000056E05C0ADFF055003260406002A02E361
:10141000014A022AE9D700009EA8FED7031CAD6E40
:10142000AD2A00009EA8FED717EC15F0E4CF07F018
:10143000E4CF06F0E4CF05F0E4CF04F0E4CF03F00E
:10144000E4CF02F0E4CF01F0E4CF00F0E4CFD9FF25
:101450001200D9CFE5FFE1CFD9FF00C0E5FF01C001
:10146000E5FF02C0E5FF03C0E5FF04C0E5FF05C0DE
:10147000E5FF06C0E5FF07C0E5FF020EDBCF00F089
:10148000030EDBCF01F0040EDBCF02F0050EDBCF45
:1014900003F002C006F00650046E800A33E100C07B
:1014A000E9FF01C0F3FF02509FEC13F0056EF3CF8C
:1014B00006F0F4CF07F003C0E5FF05C0E9FF06C062
:1014C000F3FF075064EC15F000C0E9FF01C0F3FF23
:1014D00002509FEC13F0056EF3CF06F0F4CF07F047
:1014E000052A02E3064A072A05C0E5FF06C0F4FF05
:1014F00007C0F6FF00C0E9FF01C0F3FF0250FAEC9D
:1015000014F020D004C000F000AA1CD0007A0050D3
:10151000046E04E10350A4EC15F014D00450010A49
:1015200004E1035002EC00F00DD004500F0A04E176
:101530000350FEEC11F006D004500E0A03E10350F4
:10154000BAEC15F0E4CF07F0E4CF06F0E4CF05F0F5
:10155000E4CF04F0E4CF03F0E4CF02F0E4CF01F0F5
:10156000E4CF00F0E4CFD9FF1200D9CFE5FFE1CFFF
:10157000D9FF00C0E5FF01C0E5FF02C0E5FF03C0E1
:10158000E5FF04C0E5FF05C0E5FF06C0E5FF07C0B5
:10159000E5FF020EDBCF00F0030EDBCF01F0040EFF
:1015A000DBCF02F0050EDBCF03F054C455F4040189
:1015B00053510401555F5551046E0404556F03C027
:1015C00004F0056A030E0426D8B0052A55C406F0B7
:1015D000076A0750800FF36E0550800FF35C02E13D
:1015E0000450065C02E2E86830D0020E035C02E2BE
:1015F000E86A2BD00350046E0404036EE56EE7EC3A
:1016000010F0E652046A0350045C14E20450002413
:10161000056EE86A0120066EE86A022005C0E9FF4F
:1016200006C0F3FFE9EC14F0042AE56EE7EC10F0D5
:10163000E652E9D754C455F4040153510401555FEF
:101640005551006E0004556FE86AE4CF07F0E4CF0F
:1016500006F0E4CF05F0E4CF04F0E4CF03F0E4CFEC
:1016600002F0E4CF01F0E4CF00F0E4CFD9FF1200A4
:10167000D9CFE5FFE1CFD9FF00C0E5FF01C0E5FF0D
:1016800002C0E5FF03C0E5FF04C0E5FF05C0E5FFBC
:1016900006C0E5FF020EDBCF00F0030EDBCF01F04A
:1016A000040EDBCF02F0050EDBCF03F0D88001AED5
:1016B000D890046A0436045007E0011C066E001C32
:1016C000056E054A062A04D000C005F001C006F0E8
:1016D000D88003AED89007E3031C016E021C006E95
:1016E000004A012A04D002C000F003C001F00150FA
:1016F000E56E0050E56E0650E56E0550E56E04ECB3
:101700000EF0006EF3CF01F0040EE12604500AE063
:10171000011C036E001C026E024A032A03C0F3FF81
:10172000025003D001C0F3FF0050E4CF06F0E4CF35
:1017300005F0E4CF04F0E4CF03F0E4CF02F0E4CF0F
:1017400001F0E4CF00F0E4CFD9FF1200D9CFE5FFDC
:10175000E1CFD9FF00C0E5FF01C0E5FF02C0E5FF12
:1017600003C0E5FF04C0E5FF05C0E5FF020EDBCFC7
:1017700000F0030EDBCF01F0040EDBCF02F0050E0C
:10178000DBCF03F036CF04F037CF05F00F01363F43
:1017900001D0372B0350E56E0450E56E01EC13F0D9
:1017A000E652E65236CF04F037CF05F00F01363F50
:1017B00001D0372B0250056EE56E0450E56E01EC4A
:1017C00013F0E652E65236CF04F037CF05F00F01A2
:1017D000363F01D0372B0150E56E0450E56E01EC29
:1017E00013F0E652E65236CF04F037CF05F00F0182
:1017F000363F01D0372B0050E56E0450E56E01EC0A
:1018000013F0E652E652E4CF05F0E4CF04F0E4CF63
:1018100003F0E4CF02F0E4CF01F0E4CF00F0E4CF36
:10182000D9FF1200D9CFE5FFE1CFD9FF00C0E5FF16
:1018300001C0E5FF02C0E5FF03C0E5FF04C0E5FF0E
:1018400005C0E5FF06C0E5FF020EDBCF00F0030E8A
:10185000DBCF01F0040EDBCF02F00401375119E1B8
:101860000FEC09F0036EF3CF04F0F4CF05F0E9CFED
:1018700006F003C0E5FF04C0F4FF05C0F6FF06C094
:10188000F7FF00C0E9FF01C0F3FF0250D8EC14F0ED
:101890001ED004013751010A1AE100C0E9FF01C05E
:1018A000F3FF025025EC13F0006EF3CF01F0F4CFFC
:1018B00002F0E9CF03F00350E56E0250E56E0150EF
:1018C000E56E0050E56EA6EC0BF0040EE126E4CFC9
:1018D00006F0E4CF05F0E4CF04F0E4CF03F0E4CF6A
:1018E00002F0E4CF01F0E4CF00F0E4CFD9FF120022
:1018F00000C0E5FF01C0E5FF02C0E5FF03C0E5FF52
:1019000004C0E5FF8AEC12F0006EFE0A2DE1BAEC8D
:101910000EF08AEC12F0016E080E015CD8B043D0D4
:101920000150020DF450036EF3CF02F0230E022695
:10193000040E032202C0E9FF03C0EAFFEECF02F06B
:10194000EFCF03F00350E56E0250E56EE56A0150FB
:10195000E56E000EE56E1D0EE56E6C0EE56E2BEC71
:1019600010F0070EE1261FD0080E005C1CE28AEC86
:1019700012F0046E036A8AEC12F0026A0326025027
:1019800004220050020DF450016EF3CF00F0230E3C
:101990000026040E012200C0E9FF01C0EAFF03C0D7
:1019A000EEFF04C0EFFFE4CF04F0E4CF03F0E4CF98
:1019B00002F0E4CF01F0E4CF00F01200D9CFE5FF50
:1019C000E1CFD9FF00C0E5FF01C0E5FF02C0E5FFA0
:1019D00003C0E5FF04C0E5FF05C0E5FF06C0E5FF65
:1019E000020EDBCF00F0030EDBCF01F0040EDBCFE5
:1019F00002F0050EDBCF03F0060EDBCF04F0005043
:101A0000030DF450066EF3CF05F0390E0526040ED3
:101A1000062205C0E9FF06C0EAFF01C0EEFF02C0D2
:101A2000EEFF03C0EFFF810E0024016E026A040E78
:101A3000022201C0E9FF02C0EAFF04C0EFFF00502C
:101A4000020DF450016EF3CF00F0230E0026040EB9
:101A5000012200C0E9FF01C0EAFF000EEE6AEF6A52
:101A6000E4CF06F0E4CF05F0E4CF04F0E4CF03F0D8
:101A7000E4CF02F0E4CF01F0E4CF00F0E4CFD9FFEF
:101A80001200D9CFE5FFE1CFD9FF00C0E5FF01C0CB
:101A9000E5FF02C0E5FF03C0E5FF04C0E5FF05C0A8
:101AA000E5FF06C0E5FF020EDBCF00F0030EDBCF43
:101AB00001F0040EDBCF02F0050EDBCF03F0060EC3
:101AC000DBCF04F0070EDBCF05F0080EDBCF06F00E
:101AD000D88003AED89015E306500A0A12E104C07C
:101AE000E9FF05C0EAFF2D0EEF6E044A052A031E2A
:101AF000021E011E006C05E1012A03E1022AD8B48E
:101B0000032A0650E56E0550E56E0450E56E03505D
:101B1000E56E0250E56E0150E56E0050E56E2FEC6B
:101B200005F0070EE126E4CF06F0E4CF05F0E4CFA0
:101B300004F0E4CF03F0E4CF02F0E4CF01F0E4CF0F
:101B400000F0E4CFD9FF1200D8CFE5FFE0CFE5FFEA
:101B5000E56EF3CFE5FFF4CFE5FFE9CFE5FFEACF90
:101B6000E5FFFACFE5FFFBCFE5FFF6CFE5FFF6CFC8
:101B7000E5FFF7CFE5FFF8CFE5FFF5CFE5FFE1CFD4
:101B8000E5FFE2CFE5FF040151510401356F040187
:101B900052510401366FD650336FD750346FF2A4D0
:101BA00011D00401513F01D0522BF2940401515144
:101BB0000401356F040152510401366FD650336F62
:101BC000D750346FABEC15F0E4CFE2FFE4CFE1FF88
:101BD000E4CFF5FFE4CFF8FFE4CFF7FFE4CFF6FF63
:101BE000E4CFF6FFE4CFFBFFE4CFFAFFE4CFEAFF58
:101BF000E4CFE9FFE4CFF4FFE4CFF3FFE450E4CF18
:101C0000E0FFE4CFD8FF1000D9CFE5FFE1CFD9FF47
:101C100000C0E5FF01C0E5FF02C0E5FF03C0E5FF2E
:101C200004C0E5FF05C0E5FF06C0E5FF020EDBCFFF
:101C300000F0030EDBCF01F0040EDBCF02F0050E47
:101C4000DBCF03F0046A056A0350800BE844066E9C
:101C5000065011E10250022603360350015C02E1F6
:101C60000250005C04E2D8900332023204D0052A0C
:101C700005C004F0E9D70350015C02E10250005CAA
:101C800004E30250005E0350015AD890033202323E
:101C900004C005F004060550EEE101C0F3FF00505A
:101CA000E4CF06F0E4CF05F0E4CF04F0E4CF03F096
:101CB000E4CF02F0E4CF01F0E4CF00F0E4CFD9FFAD
:101CC000120000C0E5FF01C0E5FF02C0E5FF03C050
:101CD000E5FF0F014E6B0F014E894E837D827F829F
:101CE0007E92006A0050030DF450026EF3CF01F0B3
:101CF000390E0126040E022201C0E9FF02C0EAFFEC
:101D0000EE6AEE6AEF6A0050020DF450026EF3CFF5
:101D100001F0230E0126040E022201C0E9FF02C0D9
:101D2000EAFFEE6AEF6A002A080E005CDBE30401BA
:101D3000596B60EC12F0F3CF01F0F4CF02F0E9CF71
:101D400003F0500F04018E6F460E01208F6F000EBE
:101D50000220906F000E0320916FE4CF03F0E4CFD8
:101D600002F0E4CF01F0E4CF00F01200256420255A
:101D7000640A000000C0E5FF01C0E5FF02C0E5FF06
:101D800003C0E5FF66C400F0016A71C402F0036A93
:101D90000250005E0350015AE56A800EE56E015064
:101DA000E56E0050E56E38EC0BF0006E040EE12697
:101DB000000671C401F0430EFEEC11F0200EFEECA3
:101DC00011F0005020E0600E0124026E036A000E44
:101DD000032202C0E9FF03C0EAFFEFCF02F0E56A89
:101DE0000250E56E000EE56E2A0EE56E460EE56EBB
:101DF0002BEC10F0050EE126012A0150800A01E1CA
:101E0000016A0006DED7E4CF03F0E4CF02F0E4CFAE
:101E100001F0E4CF00F01200D9CFE5FFE1CFD9FF08
:101E200000C0E5FF01C0E5FF02C0E5FF03C0E5FF1C
:101E300004C0E5FF020EDBCF00F0030EDBCF01F0A4
:101E4000040EDBCF02F00401375111E198EC11F0E0
:101E5000036EF3CF04F003C0E5FF04C0F4FF00C03D
:101E6000E9FF01C0F3FF025041EC15F016D0040168
:101E70003751010A12E100C0E9FF01C0F3FF02502F
:101E80005EEC14F0006EF3CF01F00150E56E0050EF
:101E9000E56EAAEC10F0E652E652E4CF04F0E4CF8F
:101EA00003F0E4CF02F0E4CF01F0E4CF00F0E4CFA0
:101EB000D9FF12001C0EF66E2B0EF76E000EF86E98
:101EC0000900F550056E0900F550066E04E105673E
:101ED00002D0A7EF0FF00900F550006E0900F55091
:101EE000016E0900F550026E09000900F550E96E17
:101EF0000900F550EA6E090009000900F550036E6B
:101F00000900F550046E09000900F6CF07F0F7CF7D
:101F100008F0F8CF09F000C0F6FF01C0F7FF02C0DB
:101F2000F8FF035002E1045007E00900F550EE6E9F
:101F30000306F8E20406F9D707C0F6FF08C0F7FF6A
:101F400009C0F8FF050601E2060666EF0FF0120071
:101F500000C0E5FF01C0E5FF02C0E5FF8AEC12F01A
:101F6000006E8AEC12F0016E0050026ED00E022458
:101F7000006E0A0E005C05E30050026EF90E0224AA
:101F8000006E0150026ED00E0224016E0A0E015C3A
:101F900005E30150026EF90E0224016E080E005C8A
:101FA00012E2100E015CD8B00ED00038F00B012404
:101FB000006E5EEC11F0016E015005E10050E56E1F
:101FC000D4EC13F0E652E4CF02F0E4CF01F0E4CF1A
:101FD00000F01200D8CFE5FFE0CFE5FFE56EF3CFCC
:101FE000E5FFF4CFE5FFE9CFE5FFEACFE5FFFACF64
:101FF000E5FFFBCFE5FFF6CFE5FFF6CFE5FFF7CF37
:10200000E5FFF8CFE5FFF5CFE5FFE1CFE5FFE2CF54
:10201000E5FF0EEC04F0E4CFE2FFE4CFE1FFE4CF14
:10202000F5FFE4CFF8FFE4CFF7FFE4CFF6FFE4CF0E
:10203000F6FFE4CFFBFFE4CFFAFFE4CFEAFFE4CF03
:10204000E9FFE4CFF4FFE4CFF3FFE450E4CFE0FF97
:10205000E4CFD8FF1000D9CFE5FFE1CFD9FF00C012
:10206000E5FF01C0E5FF02C0E5FF020ED924006EC6
:10207000000EDA20016E800E026E030E0026000EA6
:10208000012202220250E56E0150E56E0050E56E1D
:10209000040EDBCFE5FF030EDBCFE5FF020EDBCF47
:1020A000E5FF0F013551E56E3451E56E3351E56EB4
:1020B0000EEC00F0006EF3CF01F0090EE12601C036
:1020C000F3FF0050E4CF02F0E4CF01F0E4CF00F0E2
:1020D000E4CFD9FF1200D9CFE5FFE1CFD9FF00C08F
:1020E000E5FF01C0E5FF02C0E5FF03C0E5FF020E0A
:1020F000DBCF00F0030EDBCF01F0040EDBCF02F0EC
:10210000040137510DE132EC14F0036E03C0E5FF1A
:1021100000C0E9FF01C0F3FF025064EC15F00FD0DE
:1021200004013751010A0BE100C0E9FF01C0F3FFD0
:102130000250E9EC14F0E56EDBEC12F0E652E4CF6D
:1021400003F0E4CF02F0E4CF01F0E4CF00F0E4CFFD
:10215000D9FF1200D9CFE5FFE1CFD9FF00C0E5FFDD
:1021600001C0E5FF02C0E5FF03C0E5FF020EDBCFC3
:1021700000F0030EDBCF01F036CF02F037CF03F0D3
:102180000F01363F01D0372B0150E56E0250E56E4E
:1021900001EC13F0E652E65236CF02F037CF03F0EF
:1021A0000F01363F01D0372B0050E56E0250E56E2F
:1021B00001EC13F0E652E652E4CF03F0E4CF02F074
:1021C000E4CF01F0E4CF00F0E4CFD9FF1200D9CF83
:1021D000E5FFE1CFD9FF00C0E5FF01C0E5FF02C088
:1021E000E5FF03C0E5FF04C0E5FF020EDBCF00F012
:1021F00053C401F0026A014A022A54C403F0046A7B
:102200000150031803E10250041801E001D00ED080
:10221000000E04015325016E026A010E022201C064
:10222000E9FF02C0EAFF00C0EFFF532BE4CF04F048
:10223000E4CF03F0E4CF02F0E4CF01F0E4CF00F00C
:10224000E4CFD9FF1200D9CFE5FFE1CFD9FF00C01D
:10225000E5FF01C0E5FF02C0E5FF03C0E5FF020E98
:10226000DBCF00F0016A71C402F0036A025000265D
:1022700003500122E56A800EE56E0150E56E0050C4
:10228000E56E38EC0BF0006EF3CF01F0040EE126A2
:10229000600E0026000E012200C0E9FF01C0EAFF27
:1022A000EFCF00F00050E4CF03F0E4CF02F0E4CF32
:1022B00001F0E4CF00F0E4CFD9FF120000C0E5FF49
:1022C00001C0E5FF02C0E5FF010E006E8AEC12F0CE
:1022D000016E01C002F0015023E00050E56E09ECF0
:1022E00015F0016EE652015010E10A0E005C0BE29F
:1022F0000A0E006EE56E09EC15F0016EE652015013
:1023000004E1E8680ED0E8680CD00150021802E041
:10231000E86807D0002A1B0E005CD8E3E86801D00B
:10232000E86AE4CF02F0E4CF01F0E4CF00F012005D
:1023300000C0E5FF01C0E5FF02C0E5FF03C0E5FF07
:1023400036CF00F037CF01F00F01363F01D0372BE9
:102350000050E56E09EC15F0E652036E026A36CFC6
:1023600000F037CF01F00F01363F01D0372B00507E
:10237000E56E09EC15F0E652016A021201500312F3
:1023800003C0F3FF0250E4CF03F0E4CF02F0E4CF48
:1023900001F0E4CF00F01200D9CFE5FFE1CFD9FF83
:1023A00000C0E5FF01C0E5FF02C0E5FF03C0E5FF97
:1023B000020EDBCF00F0030EDBCF01F0040EDBCF0B
:1023C00002F00050020DF450036EF3CF00F0230E24
:1023D0000026040E032200C0E9FF03C0EAFF01C08B
:1023E000EEFF02C0EFFFE4CF03F0E4CF02F0E4CF52
:1023F00001F0E4CF00F0E4CFD9FF120000C0E5FF08
:1024000001C0E5FF02C0E5FF006E000E0401582583
:10241000016E026A0F0E022201C0E9FF02C0EAFF4C
:1024200000C0EFFF220E585D01E2582B00500A0A4F
:102430000FE104015851E56E800EE56E0F0EE56E5A
:10244000000EE56EB5EC0AF0040EE1260401586BAF
:10245000E4CF02F0E4CF01F0E4CF00F01200040179
:10246000536B0401546B0401556994808B909480E4
:10247000B06A3F0EAF6EB886AC8AAC84AC8CAC90C0
:10248000AB8CAB8E0401686B0401626B0401656B5D
:102490000401666B0401676B000EE56A09EC15F038
:1024A0000401576FE6529F989F9A010E0401566FE0
:1024B0000F01336B346B2F0E356F17EC15F01200D4
:1024C0000401515104018C6F0401525104018D6FBC
:1024D000D6508A6FD7508B6F8C510401511905E18A
:1024E00004018D51040152190CE004015151040101
:1024F0008C6F0401525104018D6FD6508A6FD750F2
:102500008B6F8DC4E9FF8CC4F4FF8BC4F3FF04010F
:102510008A51120000C0E5FF01C0E5FF04016651C9
:1025200004016F1905E0040166510401651902E117
:10253000E86A15D066C400F00401662B016A600EDB
:102540000026000E012200C0E9FF01C0EAFFEFCF24
:1025500000F06651800A02E10401666B0050E4CF8E
:1025600001F0E4CF00F0120000C0E5FFA8EC15F088
:102570000401896B806B8983006A89B3002A00504B
:10258000010BE844F46E8051FD0BF410806FD58E82
:10259000D59CD59AD588D596D594D582D580F28A02
:1025A000F184D08EF28EF28CBA80FF0EBB68BA84B2
:1025B000E4CF00F01200D9CFE5FFE1CFD9FF00C092
:1025C000E5FF01C0E5FF02C0E5FF020EDBCF00F032
:1025D00036CF01F037CF02F00F01363F01D0372B55
:1025E0000050E56E0150E56E01EC13F0E652E65244
:1025F000E4CF02F0E4CF01F0E4CF00F0E4CFD9FF64
:102600001200D9CFE5FFE1CFD9FF00C0E5FF020EF0
:10261000DBCF00F0030EDBCFA8FF00C0A9FFA69E12
:10262000A69CA684F29EF29C550EA76EAA0EA76EDB
:10263000A682A6A202D00000FCD7A694F28EF28C4D
:10264000E4CF00F0E4CFD9FF1200E8AE0AD0F3CF18
:10265000EAFFEE50EECFF3FFEECFF4FFEECFE9FF4F
:102660001200E8BCC1EF15F0E9CFF6FFF3CFF7FF9A
:10267000F86E0900F5500900F5CFF3FF0900F5CF1A
:10268000F4FF0900F5CFE9FF120000C0E5FF01C02B
:10269000E5FF040153510401541902E1E86A0FD027
:1026A000000E04015425006E016A010E012200C0D3
:1026B000E9FF01C0EAFFEFCF00F0542B0050E4CF58
:1026C00001F0E4CF00F01200F2CFEAFFF29EA69EE6
:1026D000A69CA684E9CFA9FFF3CFAAFFE4CFA8FF69
:1026E0006FEC15F0F4CFA8FF6FEC15F0F6CFA8FF54
:1026F0006FEC15F0F7CFA8FF6FEC15F0A694EABECB
:10270000F28E1200F2CFF6FFF29EA69EA69CE9CFB3
:10271000A9FFF3CFAAFFA680A850A94AAA2AA6809B
:10272000A8CFF3FFA94AAA2AA680A8CFF4FFA94AF6
:10273000AA2AA680A8CFEAFFF6BEF28E1200E8AE63
:1027400008D0F3CFEAFFEE50EECFF3FFEECFF4FF69
:102750001200E8BCC9EF15F0E9CFF6FFF3CFF7FFA1
:10276000F86E0900F5500900F5CFF3FF0900F5CF29
:10277000F4FF1200F2CFEAFFF29EA69EA69CA6846A
:10278000E9CFA9FFF3CFAAFFE4CFA8FF6FEC15F0C4
:10279000F4CFA8FF6FEC15F0F6CFA8FF6FEC15F0A3
:1027A000A694EABEF28E1200D9CFE5FFE1CFD9FFA1
:1027B00000C0E5FF020EDBCF00F000C057F4005070
:1027C000E56E000EE56A01EC13F0E652E652E4CF46
:1027D00000F0E4CFD9FF1200F2CFF6FFF29EA69EE2
:1027E000A69CE9CFA9FFF3CFAAFFA680A850A94ACB
:1027F000AA2AA680A8CFF3FFA94AAA2AA680A8CF12
:10280000F4FFF6BEF28E120000C0E5FF01C0E5FF46
:10281000600E04016625006E016A000E012200C0F0
:10282000E9FF01C0EAFFEFCF00F00050E4CF01F074
:10283000E4CF00F01200D9CFE5FFE1CFD9FF00C00F
:10284000E5FF020EDBCF00F0610E005C05E37B0EBE
:10285000005C02E2010E01D0E86AE4CF00F0E4CFB0
:10286000D9FF120000C0E5FF01C0E5FF36CF00F040
:1028700037CF01F00F01363F01D0372B0050E56E06
:1028800009EC15F0E652E4CF01F0E4CF00F01200BD
:10289000D9CFE5FFE1CFD9FF00C0E5FF020EDBCFC6
:1028A00000F000C056F4005004E117EC15F09D9ABA
:1028B0009D98E4CF00F0E4CFD9FF1200E8AE06D037
:1028C000F3CFEAFFEE50EECFF3FF1200E8BCBFEF0C
:1028D00015F0E9CFF6FFF3CFF7FFF86E0900F550DA
:1028E0000900F5CFF3FF1200F2CFEAFFF29EA69E99
:1028F000A69CA684E9CFA9FFF3CFAAFFE4CFA8FF47
:102900006FEC15F0F4CFA8FF6FEC15F0A694EABEBB
:10291000F28E12009AEC15F061EC0EF08990929014
:10292000010EE56E800EE56E0F0EE56E890EE56E0A
:10293000000EE56ADEEC0CF0050EE126120012EE48
:10294000FFF022EEFFF0F86AA68EA69CE9680E0E54
:10295000EA6E0068000EED6A0050FDE15AEC0FF0DF
:1029600006EC00F0FFD7F2CFF6FFF29EA69EA69CE3
:10297000E9CFA9FFF3CFAAFFA680A850A94AAA2AA7
:10298000A680A8CFF3FFF6BEF28E1200F2CFEAFFC8
:10299000F29EA69EA69CA684E9CFA9FFF3CFAAFF2C
:1029A000E4CFA8FF6FEC15F0A694EABEF28E1200F9
:1029B000E8AE0BD0F3CFEAFFE4CFEEFFF4CFEEFFAB
:1029C000F6CFEEFFF7CFEEFF1200E8BCC3EF15F035
:1029D0001200E8AE04D0F3CFEAFFEE501200E8BCDC
:1029E000BDEF15F0E9CFF6FFF3CFF7FFF86E090062
:1029F000F5501200E8AE09D0F3CFEAFFE4CFEEFFC6
:102A0000F4CFEEFFF6CFEEFF1200E8BCCBEF15F0EF
:102A10001200D9CFE5FFE1CFD9FF020EDBCFA9FF2E
:102A2000A69CA69EA680A850E4CFD9FF1200ACA217
:102A3000FED79480AE500000AE50AB98AB88AB860A
:102A40009D8A9D981200256420007EA20BD00F0164
:102A50003051E96E3151EA6E0401721DEF160F011B
:102A60004E917E921200F2CFF6FFF29EA69EA69C99
:102A7000E9CFA9FFF3CFAAFFA680A850F6BEF28E39
:102A80001200E8AE07D0F3CFEAFFE4CFEEFFF4CFB9
:102A9000EEFF1200E8BCC7EF15F01200700ED36E07
:102AA0009B8CFF0E9268936894689668626AF19EA8
:102AB000120000C0E5FF5EEC11F0006E005001E175
:102AC000FF00E4CF00F01200E8AE05D0F3CFEAFF3C
:102AD000E4CFEEFF1200E8BCC5EF15F01200550E72
:102AE000A76EAA0EA76EA682A6B2FED7A94AAA2AE8
:102AF000010E0401376F1C0E0F01366F376B120089
:102B00008AEC12F0140A02E178EC0CF012000401D5
:102B1000376B1C0E0F01366F376B120001003E2B16
:102B20000000510400000A00000055EC07F00BEC17
:102B300006F01200B4EC12F02FEC12F012000000BC
:102B40000000FF0000000000ACA2FED7AD6E120036
:102B50004EEC15F0120025EC15F012000401665140
:102B600012000401705112000401565112000401B8
:102B7000596B1200E8CF7FFF120033EF15F0B3EF6F
:102B800014F082EF13F064EF13F0C6EF14F074EF5B
:0A2B900014F0ECEF13F0BAEF13F0AD
:020000040030CA
:010006008574
:00000001FF
