:020000040000FA
:10000000000002284630C6000130C70080300000E2
:10001000000025210000000000000000C900470882
:10002000C8004830CA000130CB000000000048087A
:10003000CC004908CD00FF30C807031CC9034C0899
:100040004D0403199A2804304A07CC00CD01CD0D88
:100050004B08CD074C08C6004D08C7008030000093
:10006000000025210000000000000000CF0047082C
:10007000CE004A08C6004B08C700803000000000D0
:1000800025210000000000000000D100CD0047083D
:10009000D000CC0002304A07CC00CD01CD0D4B087A
:1000A000CD074C08C6004D08C70080300000000096
:1000B00025210000000000000000CD00D30047080B
:1000C000CC00D200000000004E08D2004F08D30040
:1000D000FF30CE07031CCF035208530403199328A3
:1000E0005008C6005108C7008030000000001221EF
:1000F0000000000000000000D2004C08831203132F
:1001000084008313000000004D18831752088312E7
:100110000313800000000000D00A0319D10ACC0AA2
:100120000319CD0A6228063000000000CA07031830
:10013000CB0A1528000000009E2808008E138801B5
:1001400010308F395038900006148710861006152D
:10015000DD010519DD0A5D08D8008C10FF30910023
:100160007F309300DB01DC01D401D501D901DD0131
:100170000519DD0A5D08D8000518CE286130550242
:10018000031DC428A83054020318CA28D40A03192E
:10019000D50ABC288710DB01DC01BC28051CD62849
:1001A000FF3059020318CE28D90ACE28AC305902A4
:1001B000031CEB2805305A02031CDA0A5A08053AD8
:1001C000031DFF28003058040319E9280130DB0023
:1001D000FF28DB01FF28A13059020318FF28003057
:1001E0005A04031DDA0300305A04031DFF280030AF
:1001F00058040319FD28DB01FF280130DB008C1CAB
:10020000B4288C1000305B0403190E2926305C02E0
:10021000031C0C298714B428DC0AB428DC018710DD
:10022000B4280800003A03191929803A0319202933
:100230000034460884008313471883170008080019
:1002400047088A00460882000800003A03192D2951
:10025000803A03193729C701003446088400831304
:10026000471883170008C700840A00080800000028
:1002700000002021C500C60FC703C70A0000000008
:100280002021C4004508C700440808000234003497
:1002900054340134563400340234003456340134BA
:0E02A0005E3400340134003401340034003484
:02400E00E03F91
:00000001FF
