:020000040000FA
:10000000000002281F30C6000130C7008030000009
:100010000000FE200000000000000000C9004708AA
:10002000C8002130CA000130CB00000000004808A1
:10003000CC004908CD00FF30C807031CC9034C0899
:100040004D0403199A2804304A07CC00CD01CD0D88
:100050004B08CD074C08C6004D08C7008030000093
:100060000000FE200000000000000000CF00470854
:10007000CE004A08C6004B08C700803000000000D0
:10008000FE200000000000000000D100CD00470865
:10009000D000CC0002304A07CC00CD01CD0D4B087A
:1000A000CD074C08C6004D08C70080300000000096
:1000B000FE200000000000000000CD00D300470833
:1000C000CC00D200000000004E08D2004F08D30040
:1000D000FF30CE07031CCF035208530403199328A3
:1000E0005008C6005108C700803000000000EB2017
:1000F0000000000000000000D2004C08831203132F
:1001000084008313000000004D18831752088312E7
:100110000313800000000000D00A0319D10ACC0AA2
:100120000319CD0A6228063000000000CA07031830
:10013000CB0A1528000000009E280800061487102E
:100140008610061510308F3950389000D9010519E6
:10015000D90A5908D600D401D5010518BD2809309F
:100160005502031DB528C43054020318BB28D40A15
:100170000319D50AAD288710AD28D701051CC6285C
:10018000FF3057020318BE28D70ABE28A7305702EF
:10019000031CDA2805305802031CD80A5808053A0F
:1001A000031DAB28003056040319D8288714AB2848
:1001B0008710AB2800305804031DD80300305804C2
:1001C000031DAB28003056040319E8288710AB281C
:1001D0008714AB280800003A0319F228803A031963
:1001E000F928003446088400831347188317000851
:1001F000080047088A00460882000800003A0319F0
:100200000629803A03191029C701003446088400E2
:100210008313471883170008C700840A00080800E2
:1002200000000000F920C500C60FC703C70A000080
:100230000000F920C4004508C70044080800013444
:100240000034273401345A3400340134003400348B
:02400E00E03F91
:00000001FF
