:020000040000FA
:10000000000002282830C6000130C7008030000000
:10001000000007210000000000000000C9004708A0
:10002000C8002A30CA000130CB0000000000480898
:10003000CC004908CD00FF30C807031CC9034C0899
:100040004D0403199A2804304A07CC00CD01CD0D88
:100050004B08CD074C08C6004D08C7008030000093
:10006000000007210000000000000000CF0047084A
:10007000CE004A08C6004B08C700803000000000D0
:1000800007210000000000000000D100CD0047085B
:10009000D000CC0002304A07CC00CD01CD0D4B087A
:1000A000CD074C08C6004D08C70080300000000096
:1000B00007210000000000000000CD00D300470829
:1000C000CC00D200000000004E08D2004F08D30040
:1000D000FF30CE07031CCF035208530403199328A3
:1000E0005008C6005108C700803000000000F4200E
:1000F0000000000000000000D2004C08831203132F
:1001000084008313000000004D18831752088312E7
:100110000313800000000000D00A0319D10ACC0AA2
:100120000319CD0A6228063000000000CA07031830
:10013000CB0A1528000000009E2808008E138801B5
:1001400010308F395038900006148710861006152D
:10015000DB010519DB0A5B08D800D401D501D90100
:10016000DB010519DB0A5B08D8000518C328093034
:100170005502031DBD28C43054020318B528D40A03
:100180000319D50AB528051CCB28FF3059020318DE
:10019000C328D90AC328AC305902031CDF28053014
:1001A0005A02031CDA0A5A08053A031DAD2800302A
:1001B00058040319DD288714AD288710AD28A13015
:1001C00059020318AD2800305A04031DDA03003029
:1001D0005A04031DAD28003058040319F128871074
:1001E000AD288714AD280800003A0319FB28803A8F
:1001F0000319022900344608840083134718831723
:100200000008080047088A00460882000800003AF3
:1002100003190F29803A03191929C7010034460828
:1002200084008313471883170008C700840A000856
:100230000800000000000221C500C60FC703C70A5E
:10024000000000000221C4004508C700440808005F
:10025000023400343634013456340034023400346D
:10026000383401345C340034013400340134003457
:02027000003458
:02400E00E03F91
:00000001FF
