:020000040000FA
:10000000000002282030C6000130C7008030000008
:100010000000FF200000000000000000C9004708A9
:10002000C8002230CA000130CB00000000004808A0
:10003000CC004908CD00FF30C807031CC9034C0899
:100040004D0403199A2804304A07CC00CD01CD0D88
:100050004B08CD074C08C6004D08C7008030000093
:100060000000FF200000000000000000CF00470853
:10007000CE004A08C6004B08C700803000000000D0
:10008000FF200000000000000000D100CD00470864
:10009000D000CC0002304A07CC00CD01CD0D4B087A
:1000A000CD074C08C6004D08C70080300000000096
:1000B000FF200000000000000000CD00D300470832
:1000C000CC00D200000000004E08D2004F08D30040
:1000D000FF30CE07031CCF035208530403199328A3
:1000E0005008C6005108C700803000000000EC2016
:1000F0000000000000000000D2004C08831203132F
:1001000084008313000000004D18831752088312E7
:100110000313800000000000D00A0319D10ACC0AA2
:100120000319CD0A6228063000000000CA07031830
:10013000CB0A1528000000009E2808008E13061424
:1001400087108610061510308F3950389000D9016D
:100150000519D90A5908D600D401D5010518BE28B9
:1001600009305502031DB628C43054020318BC28B8
:10017000D40A0319D50AAE288710AE28D701051C6A
:10018000C728FF3057020318BF28D70ABF28A73057
:100190005702031CDB2805305802031CD80A5808F4
:1001A000053A031DAC28003056040319D9288714DA
:1001B000AC288710AC2800305804031DD803003049
:1001C0005804031DAC28003056040319E928871091
:1001D000AC288714AC280800003A0319F328803AA9
:1001E0000319FA280034460884008313471883173C
:1001F0000008080047088A00460882000800003A04
:1002000003190729803A03191129C7010034460848
:1002100084008313471883170008C700840A000866
:10022000080000000000FA20C500C60FC703C70A77
:1002300000000000FA20C4004508C7004408080078
:1002400001340034283401345A3400340134003489
:02025000003478
:02400E00E03F91
:00000001FF
